{
  "_format": "hh-sol-artifact-1",
  "contractName": "CampaignFactory",
  "sourceName": "contracts/CampaignFactory.sol",
  "abi": [
    {
      "anonymous": false,
      "inputs": [
        {
          "indexed": false,
          "internalType": "string",
          "name": "title",
          "type": "string"
        },
        {
          "indexed": false,
          "internalType": "uint256",
          "name": "requiredAmount",
          "type": "uint256"
        },
        {
          "indexed": true,
          "internalType": "address",
          "name": "owner",
          "type": "address"
        },
        {
          "indexed": false,
          "internalType": "address",
          "name": "campaign",
          "type": "address"
        },
        {
          "indexed": false,
          "internalType": "string",
          "name": "image",
          "type": "string"
        },
        {
          "indexed": true,
          "internalType": "uint256",
          "name": "timestamp",
          "type": "uint256"
        },
        {
          "indexed": true,
          "internalType": "string",
          "name": "category",
          "type": "string"
        }
      ],
      "name": "campaignCreate",
      "type": "event"
    },
    {
      "inputs": [
        {
          "internalType": "uint256",
          "name": "",
          "type": "uint256"
        }
      ],
      "name": "campaigns",
      "outputs": [
        {
          "internalType": "address",
          "name": "",
          "type": "address"
        }
      ],
      "stateMutability": "view",
      "type": "function"
    },
    {
      "inputs": [
        {
          "internalType": "string",
          "name": "_title",
          "type": "string"
        },
        {
          "internalType": "uint256",
          "name": "_requiredAmount",
          "type": "uint256"
        },
        {
          "internalType": "string",
          "name": "_image",
          "type": "string"
        },
        {
          "internalType": "string",
          "name": "_story",
          "type": "string"
        },
        {
          "internalType": "string",
          "name": "_category",
          "type": "string"
        }
      ],
      "name": "createCampaign",
      "outputs": [],
      "stateMutability": "nonpayable",
      "type": "function"
    },
    {
      "inputs": [],
      "name": "name",
      "outputs": [
        {
          "internalType": "string",
          "name": "",
          "type": "string"
        }
      ],
      "stateMutability": "pure",
      "type": "function"
    }
  ],
  "bytecode": "0x608060405234801561001057600080fd5b50611437806100206000396000f3fe60806040523480156200001157600080fd5b5060043610620000465760003560e01c806306fdde03146200004b578063141961bc146200006d578063c658857d14620000a3575b600080fd5b62000055620000c3565b60405162000064919062000311565b60405180910390f35b6200008b600480360381019062000085919062000384565b62000100565b6040516200009a9190620003fb565b60405180910390f35b620000c16004803603810190620000bb919062000569565b62000140565b005b60606040518060400160405280600f81526020017f43616d706169676e466163746f72790000000000000000000000000000000000815250905090565b600081815481106200011157600080fd5b906000526020600020016000915054906101000a900473ffffffffffffffffffffffffffffffffffffffff1681565b6000858585853360405162000155906200025f565b620001659594939291906200067e565b604051809103906000f08015801562000182573d6000803e3d6000fd5b5090506000819080600181540180825580915050600190039060005260206000200160009091909190916101000a81548173ffffffffffffffffffffffffffffffffffffffff021916908373ffffffffffffffffffffffffffffffffffffffff16021790555081604051620001f8919062000732565b6040518091039020423373ffffffffffffffffffffffffffffffffffffffff167f48360dc8bf4d547fef4488c7efc9008d39f02c6f8377524cf74a51c4124c543d8989868a6040516200024f94939291906200074b565b60405180910390a4505050505050565b610c5b80620007a783390190565b600081519050919050565b600082825260208201905092915050565b60005b83811015620002a95780820151818401526020810190506200028c565b83811115620002b9576000848401525b50505050565b6000601f19601f8301169050919050565b6000620002dd826200026d565b620002e9818562000278565b9350620002fb81856020860162000289565b6200030681620002bf565b840191505092915050565b600060208201905081810360008301526200032d8184620002d0565b905092915050565b6000604051905090565b600080fd5b600080fd5b6000819050919050565b6200035e8162000349565b81146200036a57600080fd5b50565b6000813590506200037e8162000353565b92915050565b6000602082840312156200039d576200039c6200033f565b5b6000620003ad848285016200036d565b91505092915050565b600073ffffffffffffffffffffffffffffffffffffffff82169050919050565b6000620003e382620003b6565b9050919050565b620003f581620003d6565b82525050565b6000602082019050620004126000830184620003ea565b92915050565b600080fd5b600080fd5b7f4e487b7100000000000000000000000000000000000000000000000000000000600052604160045260246000fd5b6200045c82620002bf565b810181811067ffffffffffffffff821117156200047e576200047d62000422565b5b80604052505050565b60006200049362000335565b9050620004a1828262000451565b919050565b600067ffffffffffffffff821115620004c457620004c362000422565b5b620004cf82620002bf565b9050602081019050919050565b82818337600083830152505050565b600062000502620004fc84620004a6565b62000487565b9050828152602081018484840111156200052157620005206200041d565b5b6200052e848285620004dc565b509392505050565b600082601f8301126200054e576200054d62000418565b5b813562000560848260208601620004eb565b91505092915050565b600080600080600060a086880312156200058857620005876200033f565b5b600086013567ffffffffffffffff811115620005a957620005a862000344565b5b620005b78882890162000536565b9550506020620005ca888289016200036d565b945050604086013567ffffffffffffffff811115620005ee57620005ed62000344565b5b620005fc8882890162000536565b935050606086013567ffffffffffffffff81111562000620576200061f62000344565b5b6200062e8882890162000536565b925050608086013567ffffffffffffffff81111562000652576200065162000344565b5b620006608882890162000536565b9150509295509295909350565b620006788162000349565b82525050565b600060a08201905081810360008301526200069a8188620002d0565b9050620006ab60208301876200066d565b8181036040830152620006bf8186620002d0565b90508181036060830152620006d58185620002d0565b9050620006e66080830184620003ea565b9695505050505050565b600081905092915050565b600062000708826200026d565b620007148185620006f0565b93506200072681856020860162000289565b80840191505092915050565b6000620007408284620006fb565b915081905092915050565b60006080820190508181036000830152620007678187620002d0565b90506200077860208301866200066d565b620007876040830185620003ea565b81810360608301526200079b8184620002d0565b90509594505050505056fe60806040523480156200001157600080fd5b5060405162000c5b38038062000c5b8339818101604052810190620000379190620003c2565b84600090805190602001906200004f929190620000d5565b508360048190555082600190805190602001906200006f929190620000d5565b50816002908051906020019062000088929190620000d5565b5080600360006101000a81548173ffffffffffffffffffffffffffffffffffffffff021916908373ffffffffffffffffffffffffffffffffffffffff16021790555050505050506200050c565b828054620000e390620004d6565b90600052602060002090601f01602090048101928262000107576000855562000153565b82601f106200012257805160ff191683800117855562000153565b8280016001018555821562000153579182015b828111156200015257825182559160200191906001019062000135565b5b50905062000162919062000166565b5090565b5b808211156200018157600081600090555060010162000167565b5090565b6000604051905090565b600080fd5b600080fd5b600080fd5b600080fd5b6000601f19601f8301169050919050565b7f4e487b7100000000000000000000000000000000000000000000000000000000600052604160045260246000fd5b620001ee82620001a3565b810181811067ffffffffffffffff8211171562000210576200020f620001b4565b5b80604052505050565b60006200022562000185565b9050620002338282620001e3565b919050565b600067ffffffffffffffff821115620002565762000255620001b4565b5b6200026182620001a3565b9050602081019050919050565b60005b838110156200028e57808201518184015260208101905062000271565b838111156200029e576000848401525b50505050565b6000620002bb620002b58462000238565b62000219565b905082815260208101848484011115620002da57620002d96200019e565b5b620002e78482856200026e565b509392505050565b600082601f83011262000307576200030662000199565b5b815162000319848260208601620002a4565b91505092915050565b6000819050919050565b620003378162000322565b81146200034357600080fd5b50565b60008151905062000357816200032c565b92915050565b600073ffffffffffffffffffffffffffffffffffffffff82169050919050565b60006200038a826200035d565b9050919050565b6200039c816200037d565b8114620003a857600080fd5b50565b600081519050620003bc8162000391565b92915050565b600080600080600060a08688031215620003e157620003e06200018f565b5b600086015167ffffffffffffffff81111562000402576200040162000194565b5b6200041088828901620002ef565b9550506020620004238882890162000346565b945050604086015167ffffffffffffffff81111562000447576200044662000194565b5b6200045588828901620002ef565b935050606086015167ffffffffffffffff81111562000479576200047862000194565b5b6200048788828901620002ef565b92505060806200049a88828901620003ab565b9150509295509295909350565b7f4e487b7100000000000000000000000000000000000000000000000000000000600052602260045260246000fd5b60006002820490506001821680620004ef57607f821691505b60208210811415620005065762000505620004a7565b5b50919050565b61073f806200051c6000396000f3fe6080604052600436106100705760003560e01c80634d012f581161004e5780634d012f58146100f65780638da5cb5b14610121578063ed88c68e1461014c578063f3ccaac01461015657610070565b806346c922d11461007557806348b9ef40146100a05780634a79d50c146100cb575b600080fd5b34801561008157600080fd5b5061008a610181565b6040516100979190610505565b60405180910390f35b3480156100ac57600080fd5b506100b561020f565b6040516100c29190610540565b60405180910390f35b3480156100d757600080fd5b506100e0610215565b6040516100ed9190610505565b60405180910390f35b34801561010257600080fd5b5061010b6102a3565b6040516101189190610540565b60405180910390f35b34801561012d57600080fd5b506101366102a9565b604051610143919061059c565b60405180910390f35b6101546102cf565b005b34801561016257600080fd5b5061016b6103de565b6040516101789190610505565b60405180910390f35b6002805461018e906105e6565b80601f01602080910402602001604051908101604052809291908181526020018280546101ba906105e6565b80156102075780601f106101dc57610100808354040283529160200191610207565b820191906000526020600020905b8154815290600101906020018083116101ea57829003601f168201915b505050505081565b60045481565b60008054610222906105e6565b80601f016020809104026020016040519081016040528092919081815260200182805461024e906105e6565b801561029b5780601f106102705761010080835404028352916020019161029b565b820191906000526020600020905b81548152906001019060200180831161027e57829003601f168201915b505050505081565b60055481565b600360009054906101000a900473ffffffffffffffffffffffffffffffffffffffff1681565b60055460045411610315576040517f08c379a000000000000000000000000000000000000000000000000000000000815260040161030c90610664565b60405180910390fd5b600360009054906101000a900473ffffffffffffffffffffffffffffffffffffffff1673ffffffffffffffffffffffffffffffffffffffff166108fc349081150290604051600060405180830381858888f1935050505015801561037d573d6000803e3d6000fd5b50346005600082825461039091906106b3565b9250508190555042343373ffffffffffffffffffffffffffffffffffffffff167fe6add99d06d9ad7fc456e746aa162eed6211c5002ef2dacdd67b8d2016822fba60405160405180910390a4565b600180546103eb906105e6565b80601f0160208091040260200160405190810160405280929190818152602001828054610417906105e6565b80156104645780601f1061043957610100808354040283529160200191610464565b820191906000526020600020905b81548152906001019060200180831161044757829003601f168201915b505050505081565b600081519050919050565b600082825260208201905092915050565b60005b838110156104a657808201518184015260208101905061048b565b838111156104b5576000848401525b50505050565b6000601f19601f8301169050919050565b60006104d78261046c565b6104e18185610477565b93506104f1818560208601610488565b6104fa816104bb565b840191505092915050565b6000602082019050818103600083015261051f81846104cc565b905092915050565b6000819050919050565b61053a81610527565b82525050565b60006020820190506105556000830184610531565b92915050565b600073ffffffffffffffffffffffffffffffffffffffff82169050919050565b60006105868261055b565b9050919050565b6105968161057b565b82525050565b60006020820190506105b1600083018461058d565b92915050565b7f4e487b7100000000000000000000000000000000000000000000000000000000600052602260045260246000fd5b600060028204905060018216806105fe57607f821691505b60208210811415610612576106116105b7565b5b50919050565b7f726571756972656420616d6f756e742066756c6c66696c6c6564000000000000600082015250565b600061064e601a83610477565b915061065982610618565b602082019050919050565b6000602082019050818103600083015261067d81610641565b9050919050565b7f4e487b7100000000000000000000000000000000000000000000000000000000600052601160045260246000fd5b60006106be82610527565b91506106c983610527565b9250827fffffffffffffffffffffffffffffffffffffffffffffffffffffffffffffffff038211156106fe576106fd610684565b5b82820190509291505056fea2646970667358221220e27f62783ca390647c4f439684a01782a033e2c59f2a9c625167f48aa3c7c28164736f6c63430008080033a2646970667358221220f858976e98471bf48f42fc892fbd3a4849a3f992340453f717291342da6639a764736f6c63430008080033",
  "linkReferences": {},
  "deployedLinkReferences": {}
}